{
  "contractName": "VotingOption",
  "abi": [
    {
      "inputs": [
        {
          "name": "_optionId",
          "type": "uint8"
        },
        {
          "name": "_proposalId",
          "type": "uint256"
        },
        {
          "name": "_votingManager",
          "type": "address"
        }
      ],
      "payable": false,
      "stateMutability": "nonpayable",
      "type": "constructor"
    },
    {
      "payable": false,
      "stateMutability": "nonpayable",
      "type": "fallback"
    },
    {
      "constant": false,
      "inputs": [],
      "name": "vote",
      "outputs": [],
      "payable": false,
      "stateMutability": "nonpayable",
      "type": "function"
    }
  ],
  "bytecode": "0x608060405234801561001057600080fd5b5060405160608061038f83398101806040528101908080519060200190929190805190602001909291908051906020019092919050505060018360ff16148061005c575060028360ff16145b8061006a575060038360ff16145b15156100de576040517f08c379a00000000000000000000000000000000000000000000000000000000081526004018080602001828103825260158152602001807f4f7074696f6e20646f6573206e6f74206578697374000000000000000000000081525060200191505060405180910390fd5b600073ffffffffffffffffffffffffffffffffffffffff168173ffffffffffffffffffffffffffffffffffffffff1614151515610183576040517f08c379a000000000000000000000000000000000000000000000000000000000815260040180806020018281038252601e8152602001807f566f74696e672063616e206e6f7420686176652030782061646472657373000081525060200191505060405180910390fd5b826000806101000a81548160ff021916908360ff1602179055508160018190555080600260006101000a81548173ffffffffffffffffffffffffffffffffffffffff021916908373ffffffffffffffffffffffffffffffffffffffff160217905550505050610198806101f76000396000f300608060405260043610610041576000357c0100000000000000000000000000000000000000000000000000000000900463ffffffff168063632a9a5214610058575b34801561004d57600080fd5b5061005661006f565b005b34801561006457600080fd5b5061006d61006f565b005b600260009054906101000a900473ffffffffffffffffffffffffffffffffffffffff1673ffffffffffffffffffffffffffffffffffffffff166319cff7066001546000809054906101000a900460ff16336040518463ffffffff167c0100000000000000000000000000000000000000000000000000000000028152600401808481526020018360ff1660ff1681526020018273ffffffffffffffffffffffffffffffffffffffff1673ffffffffffffffffffffffffffffffffffffffff1681526020019350505050600060405180830381600087803b15801561015257600080fd5b505af1158015610166573d6000803e3d6000fd5b505050505600a165627a7a72305820406f81bb0c6c6cdf6b62299cecffa85a251fb9c663441a47b60b77f98c11f0460029",
  "source": "pragma solidity ^0.4.24;\n\nimport 'openzeppelin-solidity/contracts/ownership/Ownable.sol';\n\n\ncontract VotingOption {\n\n    uint8 optionId;\n    uint proposalId;\n\n    VotingManager votingManager;\n\n    constructor(uint8 _optionId, uint _proposalId, VotingManager _votingManager) public {\n        require(_optionId == 1 || _optionId == 2 || _optionId == 3, 'Option does not exist');\n        require(_votingManager != address(0), 'Voting can not have 0x address');\n\n        optionId = _optionId;\n        proposalId = _proposalId;\n        votingManager = _votingManager;\n    }\n\n    function () external {\n        vote();\n    }\n\n    function vote() public {\n        votingManager.vote(proposalId, optionId, msg.sender);\n    }\n}\n\n\n/**\n * @title AuthorizedContracts\n * @dev The AuthorizedContracts contract has map of addresses, and provides basic authorization control\n * functions, this simplifies the implementation of \"voting permissions\".\n */\ncontract AuthorizedContracts {\n    mapping(address => bool) public authorizedContracts;\n\n    /**\n    * @dev Throws if called by any contract which is not in authorizedContracts.\n    */\n    modifier onlyAllowedContracts() {\n        require(isAuthorized());\n        _;\n    }\n\n    /**\n    * @return true if `msg.sender` exists in the allowedContracts of the contract.\n    */\n    function isAuthorized() public view returns(bool) {\n        return authorizedContracts[msg.sender];\n    }\n}\n\n\n/**\n * @title VotingManager\n * @dev Smart contract which gives ability to take participation in EIPs\n */\ncontract VotingManager is Ownable, AuthorizedContracts {\n\n    event VotingDetails(uint proposalId, bool isVotingOpen);\n    event Vote(uint proposalId, address indexed voter, uint8 selectedOption);\n\n\n    struct Voter {\n        bool voted;\n        uint8 selectedOption;\n    }\n\n    struct Proposal {\n        uint id;\n        bool isVotingOpen;\n        uint votingCreatedAt;\n        address[] participants;\n        mapping(address => Voter) voters;\n\n        VotingOption yay;\n        VotingOption nay;\n        VotingOption abstain;\n    }\n\n    mapping(uint => Proposal) public proposals;\n    uint public proposalsCount;\n\n\n    function addProposal(uint _proposalId, bool _isVotingOpen) public {\n        require(proposals[_proposalId].id != _proposalId, 'Proposal already exists');\n\n        // create proposal\n        Proposal storage proposal = proposals[_proposalId];\n        proposal.id = _proposalId;\n        proposal.isVotingOpen = _isVotingOpen;\n        proposal.votingCreatedAt = now;\n\n        // create contracts to allow voting just with simple transaction to contract address\n        proposal.yay = new VotingOption(1, _proposalId, this);\n        proposal.nay = new VotingOption(2, _proposalId, this);\n        proposal.abstain = new VotingOption(3, _proposalId, this);\n\n        // authorize contracts\n        authorizedContracts[address(proposal.yay)] = true;\n        authorizedContracts[address(proposal.nay)] = true;\n        authorizedContracts[address(proposal.abstain)] = true;\n\n        proposals[_proposalId] = proposal;\n        proposalsCount += 1;\n\n        emit VotingDetails(_proposalId, _isVotingOpen);\n    }\n\n    function changeProposalStatus(uint _proposalId, bool _isVotingOpen) onlyOwner public {\n        Proposal storage proposal = proposals[_proposalId];\n\n        require(proposal.id == _proposalId, 'Proposal does not exist');\n        require(proposal.isVotingOpen != _isVotingOpen, 'Proposal already has this status');\n\n        proposal.isVotingOpen = _isVotingOpen;\n\n        emit VotingDetails(_proposalId, _isVotingOpen);\n    }\n\n    /// Give a single vote to proposal.\n    function vote(uint _proposalId, uint8 _selectedOption, address _sender) onlyAllowedContracts public {\n        Proposal storage proposal = proposals[_proposalId];\n        Voter storage voter = proposal.voters[_sender];\n\n        // check requirements\n        require(proposal.id == _proposalId, 'Proposal does not exists');\n        require(proposal.isVotingOpen == true, 'Voting is closed');\n        require(voter.selectedOption != _selectedOption, 'Already voted for this option');\n\n        // save results if it was not voted earlier\n        if (!voter.voted) {\n            voter.voted = true;\n\n            proposals[_proposalId] = proposal;\n            proposal.participants.push(_sender);\n        }\n\n        voter.selectedOption = _selectedOption;\n\n        emit Vote(_proposalId, _sender, _selectedOption);\n    }\n\n    function votingResults(uint _proposalId) public view returns (uint[] memory) {\n        Proposal storage proposal = proposals[_proposalId];\n\n        require(proposal.id == _proposalId, 'Proposal does not exist');\n\n        address[] storage participants = proposal.participants;\n\n        uint[] memory results = new uint[](3);\n\n        for (uint8 i = 0; i < participants.length; i++) {\n            address participant = participants[i];\n            Voter storage voter = proposal.voters[participant];\n\n            results[voter.selectedOption-1] = results[voter.selectedOption-1] + address(participant).balance;\n        }\n\n        return results;\n    }\n\n    function isProposalExists(uint _proposalId) public view returns (bool) {\n        Proposal storage proposal = proposals[_proposalId];\n        return proposal.id == _proposalId;\n    }\n}\n\n",
  "sourcePath": "/Users/bomalkevych/Documents/git/TennaGraph/smart_contracts/contracts/VotingManager.sol",
  "compiler": {
    "name": "solc",
    "version": "0.4.24+commit.e67f0147.Emscripten.clang"
  },
  "schemaVersion": "2.0.1",
  "updatedAt": "2019-01-02T11:36:09.183Z"
}