{
  "contractName": "VotingManager",
  "abi": [
    {
      "constant": true,
      "inputs": [
        {
          "name": "",
          "type": "uint256"
        }
      ],
      "name": "proposals",
      "outputs": [
        {
          "name": "id",
          "type": "uint256"
        },
        {
          "name": "isVotingOpen",
          "type": "bool"
        },
        {
          "name": "yay",
          "type": "address"
        },
        {
          "name": "nay",
          "type": "address"
        },
        {
          "name": "abstain",
          "type": "address"
        }
      ],
      "payable": false,
      "stateMutability": "view",
      "type": "function"
    },
    {
      "constant": true,
      "inputs": [],
      "name": "proposalsCount",
      "outputs": [
        {
          "name": "",
          "type": "uint256"
        }
      ],
      "payable": false,
      "stateMutability": "view",
      "type": "function"
    },
    {
      "constant": true,
      "inputs": [],
      "name": "isAuthorized",
      "outputs": [
        {
          "name": "",
          "type": "bool"
        }
      ],
      "payable": false,
      "stateMutability": "view",
      "type": "function"
    },
    {
      "constant": false,
      "inputs": [],
      "name": "renounceOwnership",
      "outputs": [],
      "payable": false,
      "stateMutability": "nonpayable",
      "type": "function"
    },
    {
      "constant": true,
      "inputs": [],
      "name": "owner",
      "outputs": [
        {
          "name": "",
          "type": "address"
        }
      ],
      "payable": false,
      "stateMutability": "view",
      "type": "function"
    },
    {
      "constant": true,
      "inputs": [],
      "name": "isOwner",
      "outputs": [
        {
          "name": "",
          "type": "bool"
        }
      ],
      "payable": false,
      "stateMutability": "view",
      "type": "function"
    },
    {
      "constant": true,
      "inputs": [
        {
          "name": "",
          "type": "address"
        }
      ],
      "name": "authorizedContracts",
      "outputs": [
        {
          "name": "",
          "type": "bool"
        }
      ],
      "payable": false,
      "stateMutability": "view",
      "type": "function"
    },
    {
      "constant": false,
      "inputs": [
        {
          "name": "newOwner",
          "type": "address"
        }
      ],
      "name": "transferOwnership",
      "outputs": [],
      "payable": false,
      "stateMutability": "nonpayable",
      "type": "function"
    },
    {
      "anonymous": false,
      "inputs": [
        {
          "indexed": true,
          "name": "previousOwner",
          "type": "address"
        },
        {
          "indexed": true,
          "name": "newOwner",
          "type": "address"
        }
      ],
      "name": "OwnershipTransferred",
      "type": "event"
    },
    {
      "constant": false,
      "inputs": [
        {
          "name": "_proposalId",
          "type": "uint256"
        },
        {
          "name": "_isVotingOpen",
          "type": "bool"
        }
      ],
      "name": "addProposal",
      "outputs": [],
      "payable": false,
      "stateMutability": "nonpayable",
      "type": "function"
    },
    {
      "constant": false,
      "inputs": [
        {
          "name": "_proposalId",
          "type": "uint256"
        },
        {
          "name": "_isVotingOpen",
          "type": "bool"
        }
      ],
      "name": "changeProposalStatus",
      "outputs": [],
      "payable": false,
      "stateMutability": "nonpayable",
      "type": "function"
    },
    {
      "constant": false,
      "inputs": [
        {
          "name": "_proposalId",
          "type": "uint256"
        },
        {
          "name": "_selectedOption",
          "type": "uint8"
        },
        {
          "name": "_sender",
          "type": "address"
        }
      ],
      "name": "vote",
      "outputs": [],
      "payable": false,
      "stateMutability": "nonpayable",
      "type": "function"
    },
    {
      "constant": true,
      "inputs": [
        {
          "name": "_proposalId",
          "type": "uint256"
        }
      ],
      "name": "votingResults",
      "outputs": [
        {
          "name": "",
          "type": "uint256[]"
        }
      ],
      "payable": false,
      "stateMutability": "view",
      "type": "function"
    },
    {
      "constant": true,
      "inputs": [
        {
          "name": "_proposalId",
          "type": "uint256"
        }
      ],
      "name": "isProposalExists",
      "outputs": [
        {
          "name": "",
          "type": "bool"
        }
      ],
      "payable": false,
      "stateMutability": "view",
      "type": "function"
    }
  ],
  "bytecode": "0x6080604052336000806101000a81548173ffffffffffffffffffffffffffffffffffffffff021916908373ffffffffffffffffffffffffffffffffffffffff1602179055506000809054906101000a900473ffffffffffffffffffffffffffffffffffffffff1673ffffffffffffffffffffffffffffffffffffffff16600073ffffffffffffffffffffffffffffffffffffffff167f8be0079c531659141344cd1fd0a4f28419497f9722a3daafe3b4186f6b6457e060405160405180910390a3611a9b806100cf6000396000f3006080604052600436106100c5576000357c0100000000000000000000000000000000000000000000000000000000900463ffffffff168063013cf08b146100ca5780630a9f46ad146101af57806319cff706146101da57806338c545b41461023457806357e6c2f41461026d578063626da5851461029c578063715018a6146102e15780638a0d2a30146102f85780638da5cb5b146103315780638f32d59b146103885780639a4f7300146103b7578063d5b9221b14610439578063f2fde38b14610494575b600080fd5b3480156100d657600080fd5b506100f5600480360381019080803590602001909291905050506104d7565b60405180868152602001851515151581526020018473ffffffffffffffffffffffffffffffffffffffff1673ffffffffffffffffffffffffffffffffffffffff1681526020018373ffffffffffffffffffffffffffffffffffffffff1673ffffffffffffffffffffffffffffffffffffffff1681526020018273ffffffffffffffffffffffffffffffffffffffff1673ffffffffffffffffffffffffffffffffffffffff1681526020019550505050505060405180910390f35b3480156101bb57600080fd5b506101c461057a565b6040518082815260200191505060405180910390f35b3480156101e657600080fd5b5061023260048036038101908080359060200190929190803560ff169060200190929190803573ffffffffffffffffffffffffffffffffffffffff169060200190929190505050610580565b005b34801561024057600080fd5b5061026b600480360381019080803590602001909291908035151590602001909291905050506109e1565b005b34801561027957600080fd5b50610282610b34565b604051808215151515815260200191505060405180910390f35b3480156102a857600080fd5b506102c760048036038101908080359060200190929190505050610b88565b604051808215151515815260200191505060405180910390f35b3480156102ed57600080fd5b506102f6610baf565b005b34801561030457600080fd5b5061032f60048036038101908080359060200190929190803515159060200190929190505050610c81565b005b34801561033d57600080fd5b50610346611282565b604051808273ffffffffffffffffffffffffffffffffffffffff1673ffffffffffffffffffffffffffffffffffffffff16815260200191505060405180910390f35b34801561039457600080fd5b5061039d6112ab565b604051808215151515815260200191505060405180910390f35b3480156103c357600080fd5b506103e260048036038101908080359060200190929190505050611302565b6040518080602001828103825283818151815260200191508051906020019060200280838360005b8381101561042557808201518184015260208101905061040a565b505050509050019250505060405180910390f35b34801561044557600080fd5b5061047a600480360381019080803573ffffffffffffffffffffffffffffffffffffffff169060200190929190505050611502565b604051808215151515815260200191505060405180910390f35b3480156104a057600080fd5b506104d5600480360381019080803573ffffffffffffffffffffffffffffffffffffffff169060200190929190505050611522565b005b60026020528060005260406000206000915090508060000154908060010160009054906101000a900460ff16908060040160009054906101000a900473ffffffffffffffffffffffffffffffffffffffff16908060050160009054906101000a900473ffffffffffffffffffffffffffffffffffffffff16908060060160009054906101000a900473ffffffffffffffffffffffffffffffffffffffff16905085565b60035481565b60008061058b610b34565b151561059657600080fd5b6002600086815260200190815260200160002091508160030160008473ffffffffffffffffffffffffffffffffffffffff1673ffffffffffffffffffffffffffffffffffffffff1681526020019081526020016000209050848260000154141515610669576040517f08c379a00000000000000000000000000000000000000000000000000000000081526004018080602001828103825260188152602001807f50726f706f73616c20646f6573206e6f7420657869737473000000000000000081525060200191505060405180910390fd5b600115158260010160009054906101000a900460ff1615151415156106f6576040517f08c379a00000000000000000000000000000000000000000000000000000000081526004018080602001828103825260108152602001807f566f74696e6720697320636c6f7365640000000000000000000000000000000081525060200191505060405180910390fd5b8360ff168160000160019054906101000a900460ff1660ff1614151515610785576040517f08c379a000000000000000000000000000000000000000000000000000000000815260040180806020018281038252601d8152602001807f416c726561647920766f74656420666f722074686973206f7074696f6e00000081525060200191505060405180910390fd5b8060000160009054906101000a900460ff1615156109bd5760018160000160006101000a81548160ff0219169083151502179055508160026000878152602001908152602001600020600082015481600001556001820160009054906101000a900460ff168160010160006101000a81548160ff021916908315150217905550600282018160020190805461081b92919061163b565b506004820160009054906101000a900473ffffffffffffffffffffffffffffffffffffffff168160040160006101000a81548173ffffffffffffffffffffffffffffffffffffffff021916908373ffffffffffffffffffffffffffffffffffffffff1602179055506005820160009054906101000a900473ffffffffffffffffffffffffffffffffffffffff168160050160006101000a81548173ffffffffffffffffffffffffffffffffffffffff021916908373ffffffffffffffffffffffffffffffffffffffff1602179055506006820160009054906101000a900473ffffffffffffffffffffffffffffffffffffffff168160060160006101000a81548173ffffffffffffffffffffffffffffffffffffffff021916908373ffffffffffffffffffffffffffffffffffffffff160217905550905050816002018390806001815401808255809150509060018203906000526020600020016000909192909190916101000a81548173ffffffffffffffffffffffffffffffffffffffff021916908373ffffffffffffffffffffffffffffffffffffffff160217905550505b838160000160016101000a81548160ff021916908360ff1602179055505050505050565b60006109eb6112ab565b15156109f657600080fd5b600260008481526020019081526020016000209050828160000154141515610a86576040517f08c379a00000000000000000000000000000000000000000000000000000000081526004018080602001828103825260178152602001807f50726f706f73616c20646f6573206e6f7420657869737400000000000000000081525060200191505060405180910390fd5b8115158160010160009054906101000a900460ff16151514151515610b13576040517f08c379a00000000000000000000000000000000000000000000000000000000081526004018080602001828103825260208152602001807f50726f706f73616c20616c72656164792068617320746869732073746174757381525060200191505060405180910390fd5b818160010160006101000a81548160ff021916908315150217905550505050565b6000600160003373ffffffffffffffffffffffffffffffffffffffff1673ffffffffffffffffffffffffffffffffffffffff16815260200190815260200160002060009054906101000a900460ff16905090565b60008060026000848152602001908152602001600020905082816000015414915050919050565b610bb76112ab565b1515610bc257600080fd5b600073ffffffffffffffffffffffffffffffffffffffff166000809054906101000a900473ffffffffffffffffffffffffffffffffffffffff1673ffffffffffffffffffffffffffffffffffffffff167f8be0079c531659141344cd1fd0a4f28419497f9722a3daafe3b4186f6b6457e060405160405180910390a360008060006101000a81548173ffffffffffffffffffffffffffffffffffffffff021916908373ffffffffffffffffffffffffffffffffffffffff160217905550565b600082600260008581526020019081526020016000206000015414151515610d11576040517f08c379a00000000000000000000000000000000000000000000000000000000081526004018080602001828103825260178152602001807f50726f706f73616c20616c72656164792065786973747300000000000000000081525060200191505060405180910390fd5b600260008481526020019081526020016000209050828160000181905550818160010160006101000a81548160ff02191690831515021790555060018330610d5761168d565b808460ff1681526020018381526020018273ffffffffffffffffffffffffffffffffffffffff1673ffffffffffffffffffffffffffffffffffffffff1681526020019350505050604051809103906000f080158015610dba573d6000803e3d6000fd5b508160040160006101000a81548173ffffffffffffffffffffffffffffffffffffffff021916908373ffffffffffffffffffffffffffffffffffffffff16021790555060028330610e0961168d565b808460ff1681526020018381526020018273ffffffffffffffffffffffffffffffffffffffff1673ffffffffffffffffffffffffffffffffffffffff1681526020019350505050604051809103906000f080158015610e6c573d6000803e3d6000fd5b508160050160006101000a81548173ffffffffffffffffffffffffffffffffffffffff021916908373ffffffffffffffffffffffffffffffffffffffff16021790555060038330610ebb61168d565b808460ff1681526020018381526020018273ffffffffffffffffffffffffffffffffffffffff1673ffffffffffffffffffffffffffffffffffffffff1681526020019350505050604051809103906000f080158015610f1e573d6000803e3d6000fd5b508160060160006101000a81548173ffffffffffffffffffffffffffffffffffffffff021916908373ffffffffffffffffffffffffffffffffffffffff16021790555060018060008360040160009054906101000a900473ffffffffffffffffffffffffffffffffffffffff1673ffffffffffffffffffffffffffffffffffffffff1673ffffffffffffffffffffffffffffffffffffffff16815260200190815260200160002060006101000a81548160ff02191690831515021790555060018060008360050160009054906101000a900473ffffffffffffffffffffffffffffffffffffffff1673ffffffffffffffffffffffffffffffffffffffff1673ffffffffffffffffffffffffffffffffffffffff16815260200190815260200160002060006101000a81548160ff02191690831515021790555060018060008360060160009054906101000a900473ffffffffffffffffffffffffffffffffffffffff1673ffffffffffffffffffffffffffffffffffffffff1673ffffffffffffffffffffffffffffffffffffffff16815260200190815260200160002060006101000a81548160ff0219169083151502179055508060026000858152602001908152602001600020600082015481600001556001820160009054906101000a900460ff168160010160006101000a81548160ff021916908315150217905550600282018160020190805461113392919061163b565b506004820160009054906101000a900473ffffffffffffffffffffffffffffffffffffffff168160040160006101000a81548173ffffffffffffffffffffffffffffffffffffffff021916908373ffffffffffffffffffffffffffffffffffffffff1602179055506005820160009054906101000a900473ffffffffffffffffffffffffffffffffffffffff168160050160006101000a81548173ffffffffffffffffffffffffffffffffffffffff021916908373ffffffffffffffffffffffffffffffffffffffff1602179055506006820160009054906101000a900473ffffffffffffffffffffffffffffffffffffffff168160060160006101000a81548173ffffffffffffffffffffffffffffffffffffffff021916908373ffffffffffffffffffffffffffffffffffffffff1602179055509050506001600360008282540192505081905550505050565b60008060009054906101000a900473ffffffffffffffffffffffffffffffffffffffff16905090565b60008060009054906101000a900473ffffffffffffffffffffffffffffffffffffffff1673ffffffffffffffffffffffffffffffffffffffff163373ffffffffffffffffffffffffffffffffffffffff1614905090565b60606000806060600080600060026000898152602001908152602001600020955087866000015414151561139e576040517f08c379a00000000000000000000000000000000000000000000000000000000081526004018080602001828103825260178152602001807f50726f706f73616c20646f6573206e6f7420657869737400000000000000000081525060200191505060405180910390fd5b85600201945060036040519080825280602002602001820160405280156113d45781602001602082028038833980820191505090505b509350600092505b84805490508360ff1610156114f457848360ff168154811015156113fc57fe5b9060005260206000200160009054906101000a900473ffffffffffffffffffffffffffffffffffffffff1691508560030160008373ffffffffffffffffffffffffffffffffffffffff1673ffffffffffffffffffffffffffffffffffffffff16815260200190815260200160002090508173ffffffffffffffffffffffffffffffffffffffff16318460018360000160019054906101000a900460ff160360ff168151811015156114a957fe5b90602001906020020151018460018360000160019054906101000a900460ff160360ff168151811015156114d957fe5b906020019060200201818152505082806001019350506113dc565b839650505050505050919050565b60016020528060005260406000206000915054906101000a900460ff1681565b61152a6112ab565b151561153557600080fd5b61153e81611541565b50565b600073ffffffffffffffffffffffffffffffffffffffff168173ffffffffffffffffffffffffffffffffffffffff161415151561157d57600080fd5b8073ffffffffffffffffffffffffffffffffffffffff166000809054906101000a900473ffffffffffffffffffffffffffffffffffffffff1673ffffffffffffffffffffffffffffffffffffffff167f8be0079c531659141344cd1fd0a4f28419497f9722a3daafe3b4186f6b6457e060405160405180910390a3806000806101000a81548173ffffffffffffffffffffffffffffffffffffffff021916908373ffffffffffffffffffffffffffffffffffffffff16021790555050565b82805482825590600052602060002090810192821561167c5760005260206000209182015b8281111561167b578254825591600101919060010190611660565b5b509050611689919061169d565b5090565b60405161038f806116e183390190565b6116dd91905b808211156116d957600081816101000a81549073ffffffffffffffffffffffffffffffffffffffff0219169055506001016116a3565b5090565b905600608060405234801561001057600080fd5b5060405160608061038f83398101806040528101908080519060200190929190805190602001909291908051906020019092919050505060018360ff16148061005c575060028360ff16145b8061006a575060038360ff16145b15156100de576040517f08c379a00000000000000000000000000000000000000000000000000000000081526004018080602001828103825260158152602001807f4f7074696f6e20646f6573206e6f74206578697374000000000000000000000081525060200191505060405180910390fd5b600073ffffffffffffffffffffffffffffffffffffffff168173ffffffffffffffffffffffffffffffffffffffff1614151515610183576040517f08c379a000000000000000000000000000000000000000000000000000000000815260040180806020018281038252601e8152602001807f566f74696e672063616e206e6f7420686176652030782061646472657373000081525060200191505060405180910390fd5b826000806101000a81548160ff021916908360ff1602179055508160018190555080600260006101000a81548173ffffffffffffffffffffffffffffffffffffffff021916908373ffffffffffffffffffffffffffffffffffffffff160217905550505050610198806101f76000396000f300608060405260043610610041576000357c0100000000000000000000000000000000000000000000000000000000900463ffffffff168063632a9a5214610058575b34801561004d57600080fd5b5061005661006f565b005b34801561006457600080fd5b5061006d61006f565b005b600260009054906101000a900473ffffffffffffffffffffffffffffffffffffffff1673ffffffffffffffffffffffffffffffffffffffff166319cff7066001546000809054906101000a900460ff16336040518463ffffffff167c0100000000000000000000000000000000000000000000000000000000028152600401808481526020018360ff1660ff1681526020018273ffffffffffffffffffffffffffffffffffffffff1673ffffffffffffffffffffffffffffffffffffffff1681526020019350505050600060405180830381600087803b15801561015257600080fd5b505af1158015610166573d6000803e3d6000fd5b505050505600a165627a7a72305820410aea886cb91079d8f75af40d3b4a9fbc2e0b72afba0a0c9ebe3332dda734390029a165627a7a72305820e15ba914a42943877ffce4b27659f3a0b76f0002ad6fe5f04ad1ad2605cf87150029",
  "source": "pragma solidity ^0.4.24;\n\nimport 'openzeppelin-solidity/contracts/ownership/Ownable.sol';\n\n\ncontract VotingOption {\n\n    uint8 optionId;\n    uint proposalId;\n\n    VotingManager votingManager;\n\n    constructor(uint8 _optionId, uint _proposalId, VotingManager _votingManager) public {\n        require(_optionId == 1 || _optionId == 2 || _optionId == 3, 'Option does not exist');\n        require(_votingManager != address(0), 'Voting can not have 0x address');\n\n        optionId = _optionId;\n        proposalId = _proposalId;\n        votingManager = _votingManager;\n    }\n\n    function () external {\n        vote();\n    }\n\n    function vote() public {\n        votingManager.vote(proposalId, optionId, msg.sender);\n    }\n}\n\n\n/**\n * @title AuthorizedContracts\n * @dev The AuthorizedContracts contract has map of addresses, and provides basic authorization control\n * functions, this simplifies the implementation of \"voting permissions\".\n */\ncontract AuthorizedContracts {\n    mapping(address => bool) public authorizedContracts;\n\n    /**\n    * @dev Throws if called by any contract which is not in authorizedContracts.\n    */\n    modifier onlyAllowedContracts() {\n        require(isAuthorized());\n        _;\n    }\n\n    /**\n    * @return true if `msg.sender` exists in the allowedContracts of the contract.\n    */\n    function isAuthorized() public view returns(bool) {\n        return authorizedContracts[msg.sender];\n    }\n}\n\n\n/**\n * @title VotingManager\n * @dev Smart contract which gives ability to take participation in EIPs\n */\ncontract VotingManager is Ownable, AuthorizedContracts {\n\n    struct Voter {\n        bool voted;\n        uint8 selectedOption;\n    }\n\n    struct Proposal {\n        uint id;\n        bool isVotingOpen;\n        address[] participants;\n        mapping(address => Voter) voters;\n\n        VotingOption yay;\n        VotingOption nay;\n        VotingOption abstain;\n    }\n\n    mapping(uint => Proposal) public proposals;\n    uint public proposalsCount;\n\n\n    function addProposal(uint _proposalId, bool _isVotingOpen) public {\n        require(proposals[_proposalId].id != _proposalId, 'Proposal already exists');\n\n        // create proposal\n        Proposal storage proposal = proposals[_proposalId];\n        proposal.id = _proposalId;\n        proposal.isVotingOpen = _isVotingOpen;\n\n        // create contracts to allow voting just with simple transaction to contract address\n        proposal.yay = new VotingOption(1, _proposalId, this);\n        proposal.nay = new VotingOption(2, _proposalId, this);\n        proposal.abstain = new VotingOption(3, _proposalId, this);\n\n        // authorize contracts\n        authorizedContracts[address(proposal.yay)] = true;\n        authorizedContracts[address(proposal.nay)] = true;\n        authorizedContracts[address(proposal.abstain)] = true;\n\n        proposals[_proposalId] = proposal;\n        proposalsCount += 1;\n    }\n\n    function changeProposalStatus(uint _proposalId, bool _isVotingOpen) onlyOwner public {\n        Proposal storage proposal = proposals[_proposalId];\n\n        require(proposal.id == _proposalId, 'Proposal does not exist');\n        require(proposal.isVotingOpen != _isVotingOpen, 'Proposal already has this status');\n\n        proposal.isVotingOpen = _isVotingOpen;\n    }\n\n    /// Give a single vote to proposal.\n    function vote(uint _proposalId, uint8 _selectedOption, address _sender) onlyAllowedContracts public {\n        Proposal storage proposal = proposals[_proposalId];\n        Voter storage voter = proposal.voters[_sender];\n\n        // check requirements\n        require(proposal.id == _proposalId, 'Proposal does not exists');\n        require(proposal.isVotingOpen == true, 'Voting is closed');\n        require(voter.selectedOption != _selectedOption, 'Already voted for this option');\n\n        // save results if it was not voted earlier\n        if (!voter.voted) {\n            voter.voted = true;\n\n            proposals[_proposalId] = proposal;\n            proposal.participants.push(_sender);\n        }\n\n        voter.selectedOption = _selectedOption;\n    }\n\n    function votingResults(uint _proposalId) public view returns (uint[] memory) {\n        Proposal storage proposal = proposals[_proposalId];\n\n        require(proposal.id == _proposalId, 'Proposal does not exist');\n\n        address[] storage participants = proposal.participants;\n\n        uint[] memory results = new uint[](3);\n\n        for (uint8 i = 0; i < participants.length; i++) {\n            address participant = participants[i];\n            Voter storage voter = proposal.voters[participant];\n\n            results[voter.selectedOption-1] = results[voter.selectedOption-1] + address(participant).balance;\n        }\n\n        return results;\n    }\n\n    function isProposalExists(uint _proposalId) public view returns (bool) {\n        Proposal storage proposal = proposals[_proposalId];\n        return proposal.id == _proposalId;\n    }\n}\n\n",
  "sourcePath": "/Users/bomalkevych/Documents/git/TennaGraph/smart_contracts/contracts/VotingManager.sol",
  "compiler": {
    "name": "solc",
    "version": "0.4.24+commit.e67f0147.Emscripten.clang"
  },
  "schemaVersion": "2.0.1",
  "updatedAt": "2018-12-06T15:00:19.354Z"
}